{
  "_format": "hh-sol-artifact-1",
  "contractName": "Crowdfund",
  "sourceName": "contracts/Crowdfund.sol",
  "abi": [
    {
      "anonymous": false,
      "inputs": [
        {
          "indexed": true,
          "internalType": "uint256",
          "name": "id",
          "type": "uint256"
        },
        {
          "indexed": true,
          "internalType": "address",
          "name": "creator",
          "type": "address"
        },
        {
          "indexed": false,
          "internalType": "uint256",
          "name": "goal",
          "type": "uint256"
        },
        {
          "indexed": false,
          "internalType": "uint256",
          "name": "startAt",
          "type": "uint256"
        },
        {
          "indexed": false,
          "internalType": "uint256",
          "name": "endAt",
          "type": "uint256"
        }
      ],
      "name": "CampaignCreated",
      "type": "event"
    },
    {
      "anonymous": false,
      "inputs": [
        {
          "indexed": true,
          "internalType": "uint256",
          "name": "id",
          "type": "uint256"
        },
        {
          "indexed": true,
          "internalType": "address",
          "name": "contributor",
          "type": "address"
        },
        {
          "indexed": false,
          "internalType": "uint256",
          "name": "amount",
          "type": "uint256"
        }
      ],
      "name": "Pledged",
      "type": "event"
    },
    {
      "anonymous": false,
      "inputs": [
        {
          "indexed": true,
          "internalType": "uint256",
          "name": "id",
          "type": "uint256"
        },
        {
          "indexed": true,
          "internalType": "address",
          "name": "contributor",
          "type": "address"
        },
        {
          "indexed": false,
          "internalType": "uint256",
          "name": "amount",
          "type": "uint256"
        }
      ],
      "name": "Refunded",
      "type": "event"
    },
    {
      "anonymous": false,
      "inputs": [
        {
          "indexed": true,
          "internalType": "uint256",
          "name": "campaignId",
          "type": "uint256"
        },
        {
          "indexed": true,
          "internalType": "address",
          "name": "contributor",
          "type": "address"
        },
        {
          "indexed": false,
          "internalType": "uint256",
          "name": "rewardIndex",
          "type": "uint256"
        }
      ],
      "name": "RewardClaimed",
      "type": "event"
    },
    {
      "anonymous": false,
      "inputs": [
        {
          "indexed": true,
          "internalType": "uint256",
          "name": "id",
          "type": "uint256"
        },
        {
          "indexed": false,
          "internalType": "uint256",
          "name": "amount",
          "type": "uint256"
        }
      ],
      "name": "Withdrawn",
      "type": "event"
    },
    {
      "inputs": [
        {
          "internalType": "uint256",
          "name": "_campaignId",
          "type": "uint256"
        },
        {
          "internalType": "string",
          "name": "_title",
          "type": "string"
        },
        {
          "internalType": "string",
          "name": "_description",
          "type": "string"
        },
        {
          "internalType": "uint256",
          "name": "_minimumContribution",
          "type": "uint256"
        },
        {
          "internalType": "uint256",
          "name": "_quantityAvailable",
          "type": "uint256"
        }
      ],
      "name": "addReward",
      "outputs": [],
      "stateMutability": "nonpayable",
      "type": "function"
    },
    {
      "inputs": [],
      "name": "campaignCount",
      "outputs": [
        {
          "internalType": "uint256",
          "name": "",
          "type": "uint256"
        }
      ],
      "stateMutability": "view",
      "type": "function"
    },
    {
      "inputs": [
        {
          "internalType": "uint256",
          "name": "",
          "type": "uint256"
        },
        {
          "internalType": "uint256",
          "name": "",
          "type": "uint256"
        }
      ],
      "name": "campaignRewards",
      "outputs": [
        {
          "internalType": "string",
          "name": "title",
          "type": "string"
        },
        {
          "internalType": "string",
          "name": "description",
          "type": "string"
        },
        {
          "internalType": "uint256",
          "name": "minimumContribution",
          "type": "uint256"
        },
        {
          "internalType": "uint256",
          "name": "quantityAvailable",
          "type": "uint256"
        },
        {
          "internalType": "uint256",
          "name": "claimedCount",
          "type": "uint256"
        }
      ],
      "stateMutability": "view",
      "type": "function"
    },
    {
      "inputs": [
        {
          "internalType": "uint256",
          "name": "",
          "type": "uint256"
        }
      ],
      "name": "campaigns",
      "outputs": [
        {
          "internalType": "address payable",
          "name": "creator",
          "type": "address"
        },
        {
          "internalType": "uint256",
          "name": "goal",
          "type": "uint256"
        },
        {
          "internalType": "uint256",
          "name": "pledged",
          "type": "uint256"
        },
        {
          "internalType": "uint256",
          "name": "startAt",
          "type": "uint256"
        },
        {
          "internalType": "uint256",
          "name": "endAt",
          "type": "uint256"
        },
        {
          "internalType": "bool",
          "name": "claimed",
          "type": "bool"
        },
        {
          "internalType": "string",
          "name": "metadataURI",
          "type": "string"
        }
      ],
      "stateMutability": "view",
      "type": "function"
    },
    {
      "inputs": [
        {
          "internalType": "uint256",
          "name": "_goal",
          "type": "uint256"
        },
        {
          "internalType": "uint256",
          "name": "_startAt",
          "type": "uint256"
        },
        {
          "internalType": "uint256",
          "name": "_endAt",
          "type": "uint256"
        },
        {
          "internalType": "string",
          "name": "_metadataURI",
          "type": "string"
        }
      ],
      "name": "createCampaign",
      "outputs": [
        {
          "internalType": "uint256",
          "name": "",
          "type": "uint256"
        }
      ],
      "stateMutability": "nonpayable",
      "type": "function"
    },
    {
      "inputs": [
        {
          "internalType": "uint256",
          "name": "_campaignId",
          "type": "uint256"
        }
      ],
      "name": "getRewards",
      "outputs": [
        {
          "components": [
            {
              "internalType": "string",
              "name": "title",
              "type": "string"
            },
            {
              "internalType": "string",
              "name": "description",
              "type": "string"
            },
            {
              "internalType": "uint256",
              "name": "minimumContribution",
              "type": "uint256"
            },
            {
              "internalType": "uint256",
              "name": "quantityAvailable",
              "type": "uint256"
            },
            {
              "internalType": "uint256",
              "name": "claimedCount",
              "type": "uint256"
            }
          ],
          "internalType": "struct Crowdfund.Reward[]",
          "name": "",
          "type": "tuple[]"
        }
      ],
      "stateMutability": "view",
      "type": "function"
    },
    {
      "inputs": [
        {
          "internalType": "uint256",
          "name": "_campaignId",
          "type": "uint256"
        },
        {
          "internalType": "address",
          "name": "_user",
          "type": "address"
        }
      ],
      "name": "getUserContribution",
      "outputs": [
        {
          "internalType": "uint256",
          "name": "",
          "type": "uint256"
        }
      ],
      "stateMutability": "view",
      "type": "function"
    },
    {
      "inputs": [
        {
          "internalType": "uint256",
          "name": "_campaignId",
          "type": "uint256"
        },
        {
          "internalType": "uint256",
          "name": "_rewardIndex",
          "type": "uint256"
        }
      ],
      "name": "pledge",
      "outputs": [],
      "stateMutability": "payable",
      "type": "function"
    },
    {
      "inputs": [
        {
          "internalType": "uint256",
          "name": "",
          "type": "uint256"
        },
        {
          "internalType": "address",
          "name": "",
          "type": "address"
        }
      ],
      "name": "pledgedAmounts",
      "outputs": [
        {
          "internalType": "uint256",
          "name": "",
          "type": "uint256"
        }
      ],
      "stateMutability": "view",
      "type": "function"
    },
    {
      "inputs": [
        {
          "internalType": "uint256",
          "name": "_campaignId",
          "type": "uint256"
        }
      ],
      "name": "refund",
      "outputs": [],
      "stateMutability": "nonpayable",
      "type": "function"
    },
    {
      "inputs": [
        {
          "internalType": "address",
          "name": "",
          "type": "address"
        }
      ],
      "name": "totalContributed",
      "outputs": [
        {
          "internalType": "uint256",
          "name": "",
          "type": "uint256"
        }
      ],
      "stateMutability": "view",
      "type": "function"
    },
    {
      "inputs": [
        {
          "internalType": "uint256",
          "name": "_campaignId",
          "type": "uint256"
        }
      ],
      "name": "withdraw",
      "outputs": [],
      "stateMutability": "nonpayable",
      "type": "function"
    }
  ],
  "bytecode": "0x6080604052348015600f57600080fd5b50612b998061001f6000396000f3fe6080604052600436106100a65760003560e01c80637aeef268116100645780637aeef268146101e55780637ba774311461020e5780638970ac461461024b578063a0f243b81461028c578063c0d8012c146102c9578063fde327be14610306576100a6565b80626f4103146100ab578063141961bc146100e8578063278ecde11461012b5780632e1a7d4d146101545780635117e3381461017d5780637274e30d146101ba575b600080fd5b3480156100b757600080fd5b506100d260048036038101906100cd91906117de565b610322565b6040516100df919061182d565b60405180910390f35b3480156100f457600080fd5b5061010f600480360381019061010a9190611848565b610347565b6040516101229796959493929190611941565b60405180910390f35b34801561013757600080fd5b50610152600480360381019061014d9190611848565b61043e565b005b34801561016057600080fd5b5061017b60048036038101906101769190611848565b6107bd565b005b34801561018957600080fd5b506101a4600480360381019061019f91906117de565b610b10565b6040516101b1919061182d565b60405180910390f35b3480156101c657600080fd5b506101cf610b6b565b6040516101dc919061182d565b60405180910390f35b3480156101f157600080fd5b5061020c60048036038101906102079190611aec565b610b71565b005b34801561021a57600080fd5b5061023560048036038101906102309190611b9f565b610dab565b604051610242919061182d565b60405180910390f35b34801561025757600080fd5b50610272600480360381019061026d9190611c22565b611038565b604051610283959493929190611c62565b60405180910390f35b34801561029857600080fd5b506102b360048036038101906102ae9190611cc3565b61119b565b6040516102c0919061182d565b60405180910390f35b3480156102d557600080fd5b506102f060048036038101906102eb9190611848565b6111b3565b6040516102fd9190611e88565b60405180910390f35b610320600480360381019061031b9190611c22565b611367565b005b6003602052816000526040600020602052806000526040600020600091509150505481565b60016020528060005260406000206000915090508060000160009054906101000a900473ffffffffffffffffffffffffffffffffffffffff16908060010154908060020154908060030154908060040154908060050160009054906101000a900460ff16908060060180546103bb90611ed9565b80601f01602080910402602001604051908101604052809291908181526020018280546103e790611ed9565b80156104345780601f1061040957610100808354040283529160200191610434565b820191906000526020600020905b81548152906001019060200180831161041757829003601f168201915b5050505050905087565b6000600160008381526020019081526020016000209050600073ffffffffffffffffffffffffffffffffffffffff168160000160009054906101000a900473ffffffffffffffffffffffffffffffffffffffff1673ffffffffffffffffffffffffffffffffffffffff16036104e8576040517f08c379a00000000000000000000000000000000000000000000000000000000081526004016104df90611f56565b60405180910390fd5b8060040154421161052e576040517f08c379a000000000000000000000000000000000000000000000000000000000815260040161052590611fc2565b60405180910390fd5b8060010154816002015410610578576040517f08c379a000000000000000000000000000000000000000000000000000000000815260040161056f9061202e565b60405180910390fd5b60006003600084815260200190815260200160002060003373ffffffffffffffffffffffffffffffffffffffff1673ffffffffffffffffffffffffffffffffffffffff16815260200190815260200160002054905060008111610610576040517f08c379a00000000000000000000000000000000000000000000000000000000081526004016106079061209a565b60405180910390fd5b60006003600085815260200190815260200160002060003373ffffffffffffffffffffffffffffffffffffffff1673ffffffffffffffffffffffffffffffffffffffff1681526020019081526020016000208190555080600460003373ffffffffffffffffffffffffffffffffffffffff1673ffffffffffffffffffffffffffffffffffffffff16815260200190815260200160002060008282546106b591906120e9565b9250508190555060003373ffffffffffffffffffffffffffffffffffffffff16826040516106e29061214e565b60006040518083038185875af1925050503d806000811461071f576040519150601f19603f3d011682016040523d82523d6000602084013e610724565b606091505b5050905080610768576040517f08c379a000000000000000000000000000000000000000000000000000000000815260040161075f906121af565b60405180910390fd5b3373ffffffffffffffffffffffffffffffffffffffff16847f7ca5472b7ea78c2c0141c5a12ee6d170cf4ce8ed06be3d22c8252ddfc7a6a2c4846040516107af919061182d565b60405180910390a350505050565b6000600160008381526020019081526020016000209050600073ffffffffffffffffffffffffffffffffffffffff168160000160009054906101000a900473ffffffffffffffffffffffffffffffffffffffff1673ffffffffffffffffffffffffffffffffffffffff1603610867576040517f08c379a000000000000000000000000000000000000000000000000000000000815260040161085e90611f56565b60405180910390fd5b8060000160009054906101000a900473ffffffffffffffffffffffffffffffffffffffff1673ffffffffffffffffffffffffffffffffffffffff163373ffffffffffffffffffffffffffffffffffffffff16146108f9576040517f08c379a00000000000000000000000000000000000000000000000000000000081526004016108f09061221b565b60405180910390fd5b8060040154421161093f576040517f08c379a000000000000000000000000000000000000000000000000000000000815260040161093690611fc2565b60405180910390fd5b80600101548160020154101561098a576040517f08c379a000000000000000000000000000000000000000000000000000000000815260040161098190612287565b60405180910390fd5b8060050160009054906101000a900460ff16156109dc576040517f08c379a00000000000000000000000000000000000000000000000000000000081526004016109d3906122f3565b60405180910390fd5b60018160050160006101000a81548160ff02191690831515021790555060008160020154905060008260000160009054906101000a900473ffffffffffffffffffffffffffffffffffffffff1673ffffffffffffffffffffffffffffffffffffffff1682604051610a4c9061214e565b60006040518083038185875af1925050503d8060008114610a89576040519150601f19603f3d011682016040523d82523d6000602084013e610a8e565b606091505b5050905080610ad2576040517f08c379a0000000000000000000000000000000000000000000000000000000008152600401610ac99061235f565b60405180910390fd5b837f0c875c8d391179c5cf7ad8303d268efd50b8beb78b671f85cd54bfb91eb8ef4083604051610b02919061182d565b60405180910390a250505050565b60006003600084815260200190815260200160002060008373ffffffffffffffffffffffffffffffffffffffff1673ffffffffffffffffffffffffffffffffffffffff16815260200190815260200160002054905092915050565b60005481565b6000600160008781526020019081526020016000209050600073ffffffffffffffffffffffffffffffffffffffff168160000160009054906101000a900473ffffffffffffffffffffffffffffffffffffffff1673ffffffffffffffffffffffffffffffffffffffff1603610c1b576040517f08c379a0000000000000000000000000000000000000000000000000000000008152600401610c1290611f56565b60405180910390fd5b8060000160009054906101000a900473ffffffffffffffffffffffffffffffffffffffff1673ffffffffffffffffffffffffffffffffffffffff163373ffffffffffffffffffffffffffffffffffffffff1614610cad576040517f08c379a0000000000000000000000000000000000000000000000000000000008152600401610ca4906123cb565b60405180910390fd5b80600301544210610cf3576040517f08c379a0000000000000000000000000000000000000000000000000000000008152600401610cea9061245d565b60405180910390fd5b600260008781526020019081526020016000206040518060a00160405280878152602001868152602001858152602001848152602001600081525090806001815401808255809150506001900390600052602060002090600502016000909190919091506000820151816000019081610d6c9190612629565b506020820151816001019081610d829190612629565b506040820151816002015560608201518160030155608082015181600401555050505050505050565b6000808511610def576040517f08c379a0000000000000000000000000000000000000000000000000000000008152600401610de690612747565b60405180910390fd5b828410610e31576040517f08c379a0000000000000000000000000000000000000000000000000000000008152600401610e28906127b3565b60405180910390fd5b42841015610e74576040517f08c379a0000000000000000000000000000000000000000000000000000000008152600401610e6b9061281f565b60405180910390fd5b428311610eb6576040517f08c379a0000000000000000000000000000000000000000000000000000000008152600401610ead9061288b565b60405180910390fd5b600080815480929190610ec8906128ab565b91905055506040518060e001604052803373ffffffffffffffffffffffffffffffffffffffff1681526020018681526020016000815260200185815260200184815260200160001515815260200183815250600160008054815260200190815260200160002060008201518160000160006101000a81548173ffffffffffffffffffffffffffffffffffffffff021916908373ffffffffffffffffffffffffffffffffffffffff1602179055506020820151816001015560408201518160020155606082015181600301556080820151816004015560a08201518160050160006101000a81548160ff02191690831515021790555060c0820151816006019081610fd29190612629565b509050503373ffffffffffffffffffffffffffffffffffffffff166000547f532ce22d86c3d75e9e14507fdc84d53517c2726edb5c97af3c34fb362233b071878787604051611023939291906128f3565b60405180910390a36000549050949350505050565b6002602052816000526040600020818154811061105457600080fd5b90600052602060002090600502016000915091505080600001805461107890611ed9565b80601f01602080910402602001604051908101604052809291908181526020018280546110a490611ed9565b80156110f15780601f106110c6576101008083540402835291602001916110f1565b820191906000526020600020905b8154815290600101906020018083116110d457829003601f168201915b50505050509080600101805461110690611ed9565b80601f016020809104026020016040519081016040528092919081815260200182805461113290611ed9565b801561117f5780601f106111545761010080835404028352916020019161117f565b820191906000526020600020905b81548152906001019060200180831161116257829003601f168201915b5050505050908060020154908060030154908060040154905085565b60046020528060005260406000206000915090505481565b606060026000838152602001908152602001600020805480602002602001604051908101604052809291908181526020016000905b8282101561135c57838290600052602060002090600502016040518060a001604052908160008201805461121b90611ed9565b80601f016020809104026020016040519081016040528092919081815260200182805461124790611ed9565b80156112945780601f1061126957610100808354040283529160200191611294565b820191906000526020600020905b81548152906001019060200180831161127757829003601f168201915b505050505081526020016001820180546112ad90611ed9565b80601f01602080910402602001604051908101604052809291908181526020018280546112d990611ed9565b80156113265780601f106112fb57610100808354040283529160200191611326565b820191906000526020600020905b81548152906001019060200180831161130957829003601f168201915b505050505081526020016002820154815260200160038201548152602001600482015481525050815260200190600101906111e8565b505050509050919050565b6000600160008481526020019081526020016000209050600073ffffffffffffffffffffffffffffffffffffffff168160000160009054906101000a900473ffffffffffffffffffffffffffffffffffffffff1673ffffffffffffffffffffffffffffffffffffffff1603611411576040517f08c379a000000000000000000000000000000000000000000000000000000000815260040161140890611f56565b60405180910390fd5b80600301544210158015611429575080600401544211155b611468576040517f08c379a000000000000000000000000000000000000000000000000000000000815260040161145f90612976565b60405180910390fd5b600034116114ab576040517f08c379a00000000000000000000000000000000000000000000000000000000081526004016114a2906129e2565b60405180910390fd5b600260008481526020019081526020016000208054905082101561160a5760006002600085815260200190815260200160002083815481106114f0576114ef612a02565b5b906000526020600020906005020190508060020154341015611547576040517f08c379a000000000000000000000000000000000000000000000000000000000815260040161153e90612aa3565b60405180910390fd5b60008160030154111561160857806003015481600401541061159e576040517f08c379a000000000000000000000000000000000000000000000000000000000815260040161159590612b0f565b60405180910390fd5b8060040160008154809291906115b3906128ab565b91905055503373ffffffffffffffffffffffffffffffffffffffff16847f24b5efa61dd1cfc659205a97fb8ed868f3cb8c81922bab2b96423e5de1de2cb7856040516115ff919061182d565b60405180910390a35b505b346003600085815260200190815260200160002060003373ffffffffffffffffffffffffffffffffffffffff1673ffffffffffffffffffffffffffffffffffffffff168152602001908152602001600020600082825461166a9190612b2f565b92505081905550348160020160008282546116859190612b2f565b9250508190555034600460003373ffffffffffffffffffffffffffffffffffffffff1673ffffffffffffffffffffffffffffffffffffffff16815260200190815260200160002060008282546116db9190612b2f565b925050819055503373ffffffffffffffffffffffffffffffffffffffff16837f2757ac6a40883f4491cc56930ae964df9034e343e660d5179eb01e198336756b34604051611729919061182d565b60405180910390a3505050565b6000604051905090565b600080fd5b600080fd5b6000819050919050565b61175d8161174a565b811461176857600080fd5b50565b60008135905061177a81611754565b92915050565b600073ffffffffffffffffffffffffffffffffffffffff82169050919050565b60006117ab82611780565b9050919050565b6117bb816117a0565b81146117c657600080fd5b50565b6000813590506117d8816117b2565b92915050565b600080604083850312156117f5576117f4611740565b5b60006118038582860161176b565b9250506020611814858286016117c9565b9150509250929050565b6118278161174a565b82525050565b6000602082019050611842600083018461181e565b92915050565b60006020828403121561185e5761185d611740565b5b600061186c8482850161176b565b91505092915050565b600061188082611780565b9050919050565b61189081611875565b82525050565b60008115159050919050565b6118ab81611896565b82525050565b600081519050919050565b600082825260208201905092915050565b60005b838110156118eb5780820151818401526020810190506118d0565b60008484015250505050565b6000601f19601f8301169050919050565b6000611913826118b1565b61191d81856118bc565b935061192d8185602086016118cd565b611936816118f7565b840191505092915050565b600060e082019050611956600083018a611887565b611963602083018961181e565b611970604083018861181e565b61197d606083018761181e565b61198a608083018661181e565b61199760a08301856118a2565b81810360c08301526119a98184611908565b905098975050505050505050565b600080fd5b600080fd5b7f4e487b7100000000000000000000000000000000000000000000000000000000600052604160045260246000fd5b6119f9826118f7565b810181811067ffffffffffffffff82111715611a1857611a176119c1565b5b80604052505050565b6000611a2b611736565b9050611a3782826119f0565b919050565b600067ffffffffffffffff821115611a5757611a566119c1565b5b611a60826118f7565b9050602081019050919050565b82818337600083830152505050565b6000611a8f611a8a84611a3c565b611a21565b905082815260208101848484011115611aab57611aaa6119bc565b5b611ab6848285611a6d565b509392505050565b600082601f830112611ad357611ad26119b7565b5b8135611ae3848260208601611a7c565b91505092915050565b600080600080600060a08688031215611b0857611b07611740565b5b6000611b168882890161176b565b955050602086013567ffffffffffffffff811115611b3757611b36611745565b5b611b4388828901611abe565b945050604086013567ffffffffffffffff811115611b6457611b63611745565b5b611b7088828901611abe565b9350506060611b818882890161176b565b9250506080611b928882890161176b565b9150509295509295909350565b60008060008060808587031215611bb957611bb8611740565b5b6000611bc78782880161176b565b9450506020611bd88782880161176b565b9350506040611be98782880161176b565b925050606085013567ffffffffffffffff811115611c0a57611c09611745565b5b611c1687828801611abe565b91505092959194509250565b60008060408385031215611c3957611c38611740565b5b6000611c478582860161176b565b9250506020611c588582860161176b565b9150509250929050565b600060a0820190508181036000830152611c7c8188611908565b90508181036020830152611c908187611908565b9050611c9f604083018661181e565b611cac606083018561181e565b611cb9608083018461181e565b9695505050505050565b600060208284031215611cd957611cd8611740565b5b6000611ce7848285016117c9565b91505092915050565b600081519050919050565b600082825260208201905092915050565b6000819050602082019050919050565b600082825260208201905092915050565b6000611d38826118b1565b611d428185611d1c565b9350611d528185602086016118cd565b611d5b816118f7565b840191505092915050565b611d6f8161174a565b82525050565b600060a0830160008301518482036000860152611d928282611d2d565b91505060208301518482036020860152611dac8282611d2d565b9150506040830151611dc16040860182611d66565b506060830151611dd46060860182611d66565b506080830151611de76080860182611d66565b508091505092915050565b6000611dfe8383611d75565b905092915050565b6000602082019050919050565b6000611e1e82611cf0565b611e288185611cfb565b935083602082028501611e3a85611d0c565b8060005b85811015611e765784840389528151611e578582611df2565b9450611e6283611e06565b925060208a01995050600181019050611e3e565b50829750879550505050505092915050565b60006020820190508181036000830152611ea28184611e13565b905092915050565b7f4e487b7100000000000000000000000000000000000000000000000000000000600052602260045260246000fd5b60006002820490506001821680611ef157607f821691505b602082108103611f0457611f03611eaa565b5b50919050565b7f43616d706169676e20646f6573206e6f74206578697374000000000000000000600082015250565b6000611f406017836118bc565b9150611f4b82611f0a565b602082019050919050565b60006020820190508181036000830152611f6f81611f33565b9050919050565b7f43616d706169676e206e6f7420656e6465640000000000000000000000000000600082015250565b6000611fac6012836118bc565b9150611fb782611f76565b602082019050919050565b60006020820190508181036000830152611fdb81611f9f565b9050919050565b7f476f616c20726561636865642c2063616e6e6f7420726566756e640000000000600082015250565b6000612018601b836118bc565b915061202382611fe2565b602082019050919050565b600060208201905081810360008301526120478161200b565b9050919050565b7f4e6f20636f6e747269627574696f6e7300000000000000000000000000000000600082015250565b60006120846010836118bc565b915061208f8261204e565b602082019050919050565b600060208201905081810360008301526120b381612077565b9050919050565b7f4e487b7100000000000000000000000000000000000000000000000000000000600052601160045260246000fd5b60006120f48261174a565b91506120ff8361174a565b9250828203905081811115612117576121166120ba565b5b92915050565b600081905092915050565b50565b600061213860008361211d565b915061214382612128565b600082019050919050565b60006121598261212b565b9150819050919050565b7f526566756e64206661696c656400000000000000000000000000000000000000600082015250565b6000612199600d836118bc565b91506121a482612163565b602082019050919050565b600060208201905081810360008301526121c88161218c565b9050919050565b7f4e6f742063726561746f72000000000000000000000000000000000000000000600082015250565b6000612205600b836118bc565b9150612210826121cf565b602082019050919050565b60006020820190508181036000830152612234816121f8565b9050919050565b7f476f616c206e6f74207265616368656400000000000000000000000000000000600082015250565b60006122716010836118bc565b915061227c8261223b565b602082019050919050565b600060208201905081810360008301526122a081612264565b9050919050565b7f416c72656164792077697468647261776e000000000000000000000000000000600082015250565b60006122dd6011836118bc565b91506122e8826122a7565b602082019050919050565b6000602082019050818103600083015261230c816122d0565b9050919050565b7f5472616e73666572206661696c65640000000000000000000000000000000000600082015250565b6000612349600f836118bc565b915061235482612313565b602082019050919050565b600060208201905081810360008301526123788161233c565b9050919050565b7f4f6e6c792063726561746f722063616e20616464207265776172647300000000600082015250565b60006123b5601c836118bc565b91506123c08261237f565b602082019050919050565b600060208201905081810360008301526123e4816123a8565b9050919050565b7f43616e6e6f7420616464207265776172642061667465722063616d706169676e60008201527f2073746172740000000000000000000000000000000000000000000000000000602082015250565b60006124476026836118bc565b9150612452826123eb565b604082019050919050565b600060208201905081810360008301526124768161243a565b9050919050565b60008190508160005260206000209050919050565b60006020601f8301049050919050565b600082821b905092915050565b6000600883026124df7fffffffffffffffffffffffffffffffffffffffffffffffffffffffffffffffff826124a2565b6124e986836124a2565b95508019841693508086168417925050509392505050565b6000819050919050565b600061252661252161251c8461174a565b612501565b61174a565b9050919050565b6000819050919050565b6125408361250b565b61255461254c8261252d565b8484546124af565b825550505050565b600090565b61256961255c565b612574818484612537565b505050565b5b818110156125985761258d600082612561565b60018101905061257a565b5050565b601f8211156125dd576125ae8161247d565b6125b784612492565b810160208510156125c6578190505b6125da6125d285612492565b830182612579565b50505b505050565b600082821c905092915050565b6000612600600019846008026125e2565b1980831691505092915050565b600061261983836125ef565b9150826002028217905092915050565b612632826118b1565b67ffffffffffffffff81111561264b5761264a6119c1565b5b6126558254611ed9565b61266082828561259c565b600060209050601f8311600181146126935760008415612681578287015190505b61268b858261260d565b8655506126f3565b601f1984166126a18661247d565b60005b828110156126c9578489015182556001820191506020850194506020810190506126a4565b868310156126e657848901516126e2601f8916826125ef565b8355505b6001600288020188555050505b505050505050565b7f476f616c206d757374206265203e203000000000000000000000000000000000600082015250565b60006127316010836118bc565b915061273c826126fb565b602082019050919050565b6000602082019050818103600083015261276081612724565b9050919050565b7f5374617274206d757374206265206265666f726520656e640000000000000000600082015250565b600061279d6018836118bc565b91506127a882612767565b602082019050919050565b600060208201905081810360008301526127cc81612790565b9050919050565b7f5374617274206d757374206265206e6f77206f72206675747572650000000000600082015250565b6000612809601b836118bc565b9150612814826127d3565b602082019050919050565b60006020820190508181036000830152612838816127fc565b9050919050565b7f456e64206d75737420626520696e207468652066757475726500000000000000600082015250565b60006128756019836118bc565b91506128808261283f565b602082019050919050565b600060208201905081810360008301526128a481612868565b9050919050565b60006128b68261174a565b91507fffffffffffffffffffffffffffffffffffffffffffffffffffffffffffffffff82036128e8576128e76120ba565b5b600182019050919050565b6000606082019050612908600083018661181e565b612915602083018561181e565b612922604083018461181e565b949350505050565b7f43616d706169676e20696e616374697665000000000000000000000000000000600082015250565b60006129606011836118bc565b915061296b8261292a565b602082019050919050565b6000602082019050818103600083015261298f81612953565b9050919050565b7f4d7573742073656e642045544800000000000000000000000000000000000000600082015250565b60006129cc600d836118bc565b91506129d782612996565b602082019050919050565b600060208201905081810360008301526129fb816129bf565b9050919050565b7f4e487b7100000000000000000000000000000000000000000000000000000000600052603260045260246000fd5b7f436f6e747269627574696f6e2062656c6f7720726577617264206d696e696d7560008201527f6d00000000000000000000000000000000000000000000000000000000000000602082015250565b6000612a8d6021836118bc565b9150612a9882612a31565b604082019050919050565b60006020820190508181036000830152612abc81612a80565b9050919050565b7f52657761726420736f6c64206f75740000000000000000000000000000000000600082015250565b6000612af9600f836118bc565b9150612b0482612ac3565b602082019050919050565b60006020820190508181036000830152612b2881612aec565b9050919050565b6000612b3a8261174a565b9150612b458361174a565b9250828201905080821115612b5d57612b5c6120ba565b5b9291505056fea2646970667358221220821df4c6d8d0639f88585bfd2319df15e271a1c24f37f73299b6041e01bef31c64736f6c634300081c0033",
  "linkReferences": {},
  "deployedLinkReferences": {}
}